{
  "contractName": "GestionDron",
  "abi": [
    {
      "constant": true,
      "inputs": [],
      "name": "pesticidasAceptados",
      "outputs": [
        {
          "name": "",
          "type": "uint256"
        }
      ],
      "payable": false,
      "stateMutability": "view",
      "type": "function"
    },
    {
      "constant": true,
      "inputs": [],
      "name": "parcelacount",
      "outputs": [
        {
          "name": "",
          "type": "uint256"
        }
      ],
      "payable": false,
      "stateMutability": "view",
      "type": "function"
    },
    {
      "constant": true,
      "inputs": [],
      "name": "owner",
      "outputs": [
        {
          "name": "",
          "type": "address"
        }
      ],
      "payable": false,
      "stateMutability": "view",
      "type": "function"
    },
    {
      "constant": true,
      "inputs": [],
      "name": "droncount",
      "outputs": [
        {
          "name": "",
          "type": "uint256"
        }
      ],
      "payable": false,
      "stateMutability": "view",
      "type": "function"
    },
    {
      "constant": true,
      "inputs": [],
      "name": "tokendron",
      "outputs": [
        {
          "name": "",
          "type": "address"
        }
      ],
      "payable": false,
      "stateMutability": "view",
      "type": "function"
    },
    {
      "inputs": [
        {
          "name": "tokenAddress",
          "type": "address"
        }
      ],
      "payable": false,
      "stateMutability": "nonpayable",
      "type": "constructor"
    },
    {
      "anonymous": false,
      "inputs": [
        {
          "indexed": true,
          "name": "idparcela",
          "type": "uint256"
        },
        {
          "indexed": true,
          "name": "iddron",
          "type": "uint256"
        },
        {
          "indexed": true,
          "name": "factura",
          "type": "uint256"
        }
      ],
      "name": "ParcelaFumigada",
      "type": "event"
    },
    {
      "anonymous": false,
      "inputs": [
        {
          "indexed": true,
          "name": "id",
          "type": "uint256"
        }
      ],
      "name": "TrabajoSolicitado",
      "type": "event"
    },
    {
      "constant": false,
      "inputs": [
        {
          "name": "_nuevoPesticida",
          "type": "string"
        }
      ],
      "name": "nuevoPesticida",
      "outputs": [],
      "payable": false,
      "stateMutability": "nonpayable",
      "type": "function"
    },
    {
      "constant": false,
      "inputs": [
        {
          "name": "_min",
          "type": "uint256"
        },
        {
          "name": "_max",
          "type": "uint256"
        },
        {
          "name": "_pesticida",
          "type": "uint256"
        },
        {
          "name": "_preciom2",
          "type": "uint256"
        }
      ],
      "name": "registrarDron",
      "outputs": [],
      "payable": false,
      "stateMutability": "nonpayable",
      "type": "function"
    },
    {
      "constant": false,
      "inputs": [
        {
          "name": "_min",
          "type": "uint256"
        },
        {
          "name": "_max",
          "type": "uint256"
        },
        {
          "name": "_pesticida",
          "type": "uint256"
        },
        {
          "name": "_m2",
          "type": "uint256"
        },
        {
          "name": "_preciomaxm2",
          "type": "uint256"
        }
      ],
      "name": "registrarParcela",
      "outputs": [],
      "payable": false,
      "stateMutability": "nonpayable",
      "type": "function"
    },
    {
      "constant": true,
      "inputs": [
        {
          "name": "_id",
          "type": "uint256"
        }
      ],
      "name": "getnombrepesticidaporid",
      "outputs": [
        {
          "name": "",
          "type": "string"
        }
      ],
      "payable": false,
      "stateMutability": "view",
      "type": "function"
    },
    {
      "constant": true,
      "inputs": [
        {
          "name": "_nombre",
          "type": "string"
        }
      ],
      "name": "getidpesticidapornombre",
      "outputs": [
        {
          "name": "",
          "type": "uint256"
        }
      ],
      "payable": false,
      "stateMutability": "view",
      "type": "function"
    },
    {
      "constant": false,
      "inputs": [],
      "name": "obtenerBono",
      "outputs": [
        {
          "name": "success",
          "type": "bool"
        }
      ],
      "payable": false,
      "stateMutability": "nonpayable",
      "type": "function"
    },
    {
      "constant": false,
      "inputs": [
        {
          "name": "_idParcela",
          "type": "uint256"
        }
      ],
      "name": "solicitarTrabajo",
      "outputs": [
        {
          "name": "success",
          "type": "bool"
        }
      ],
      "payable": false,
      "stateMutability": "nonpayable",
      "type": "function"
    },
    {
      "constant": false,
      "inputs": [
        {
          "name": "_idParcela",
          "type": "uint256"
        },
        {
          "name": "min",
          "type": "uint256"
        },
        {
          "name": "max",
          "type": "uint256"
        },
        {
          "name": "pesticida",
          "type": "uint256"
        },
        {
          "name": "m2",
          "type": "uint256"
        },
        {
          "name": "preciomaxm2",
          "type": "uint256"
        }
      ],
      "name": "modificarParcela",
      "outputs": [],
      "payable": false,
      "stateMutability": "nonpayable",
      "type": "function"
    },
    {
      "constant": false,
      "inputs": [
        {
          "name": "_idParcela",
          "type": "uint256"
        },
        {
          "name": "_idDron",
          "type": "uint256"
        }
      ],
      "name": "fumigar",
      "outputs": [
        {
          "name": "success",
          "type": "bool"
        }
      ],
      "payable": false,
      "stateMutability": "nonpayable",
      "type": "function"
    },
    {
      "constant": true,
      "inputs": [
        {
          "name": "_id",
          "type": "uint256"
        }
      ],
      "name": "getparcelas",
      "outputs": [
        {
          "name": "idParcela",
          "type": "uint256"
        },
        {
          "name": "propietarioParcela",
          "type": "address"
        },
        {
          "name": "min",
          "type": "uint256"
        },
        {
          "name": "max",
          "type": "uint256"
        },
        {
          "name": "pesticida",
          "type": "uint256"
        },
        {
          "name": "m2",
          "type": "uint256"
        },
        {
          "name": "preciomaxm2",
          "type": "uint256"
        }
      ],
      "payable": false,
      "stateMutability": "view",
      "type": "function"
    },
    {
      "constant": true,
      "inputs": [
        {
          "name": "_id",
          "type": "uint256"
        }
      ],
      "name": "getmapdrones",
      "outputs": [
        {
          "name": "idDron",
          "type": "uint256"
        },
        {
          "name": "empresaPropietaria",
          "type": "address"
        },
        {
          "name": "_min",
          "type": "uint256"
        },
        {
          "name": "_max",
          "type": "uint256"
        },
        {
          "name": "_pesticida",
          "type": "uint256"
        },
        {
          "name": "_preciom2",
          "type": "uint256"
        }
      ],
      "payable": false,
      "stateMutability": "view",
      "type": "function"
    }
  ],
  "bytecode": "0x60806040523480156200001157600080fd5b5060405160208062001e00833981018060405260208110156200003357600080fd5b810190808051906020019092919050505080600160006101000a81548173ffffffffffffffffffffffffffffffffffffffff021916908373ffffffffffffffffffffffffffffffffffffffff160217905550336000806101000a81548173ffffffffffffffffffffffffffffffffffffffff021916908373ffffffffffffffffffffffffffffffffffffffff160217905550620001146040805190810160405280600181526020017f410000000000000000000000000000000000000000000000000000000000000081525062000257640100000000026401000000009004565b620001636040805190810160405280600181526020017f420000000000000000000000000000000000000000000000000000000000000081525062000257640100000000026401000000009004565b620001b26040805190810160405280600181526020017f430000000000000000000000000000000000000000000000000000000000000081525062000257640100000000026401000000009004565b620002016040805190810160405280600181526020017f440000000000000000000000000000000000000000000000000000000000000081525062000257640100000000026401000000009004565b620002506040805190810160405280600181526020017f450000000000000000000000000000000000000000000000000000000000000081525062000257640100000000026401000000009004565b5062000411565b6000809054906101000a900473ffffffffffffffffffffffffffffffffffffffff1673ffffffffffffffffffffffffffffffffffffffff163373ffffffffffffffffffffffffffffffffffffffff16141515620002b357600080fd5b600160065401600681905550806007600060065481526020019081526020016000209080519060200190620002ea92919062000362565b506006546008826040518082805190602001908083835b60208310151562000328578051825260208201915060208101905060208303925062000301565b6001836020036101000a03801982511681845116808217855250505050505090500191505090815260200160405180910390208190555050565b828054600181600116156101000203166002900490600052602060002090601f016020900481019282601f10620003a557805160ff1916838001178555620003d6565b82800160010185558215620003d6579182015b82811115620003d5578251825591602001919060010190620003b8565b5b509050620003e59190620003e9565b5090565b6200040e91905b808211156200040a576000816000905550600101620003f0565b5090565b90565b6119df80620004216000396000f3fe6080604052600436106100e6576000357c0100000000000000000000000000000000000000000000000000000000900463ffffffff1680630620f300146100eb5780630ba2ba8f146101c757806324289c381461027b578063478ee872146102e85780635a642c12146103b057806370f3345c1461040d57806373af31db146104385780637874af61146104635780638da5cb5b14610492578063b2c78d29146104e9578063c467c7cb14610514578063d48a12c21461056b578063d6928715146105be578063de904df814610617578063e26729891461067a578063e828bbed1461071f575b600080fd5b3480156100f757600080fd5b506101b16004803603602081101561010e57600080fd5b810190808035906020019064010000000081111561012b57600080fd5b82018360208201111561013d57600080fd5b8035906020019184600183028401116401000000008311171561015f57600080fd5b91908080601f016020809104026020016040519081016040528093929190818152602001838380828437600081840152601f19601f8201169050808301925050505050505091929192905050506107bd565b6040518082815260200191505060405180910390f35b3480156101d357600080fd5b50610200600480360360208110156101ea57600080fd5b8101908080359060200190929190505050610832565b6040518080602001828103825283818151815260200191508051906020019080838360005b83811015610240578082015181840152602081019050610225565b50505050905090810190601f16801561026d5780820380516001836020036101000a031916815260200191505b509250505060405180910390f35b34801561028757600080fd5b506102e6600480360360c081101561029e57600080fd5b81019080803590602001909291908035906020019092919080359060200190929190803590602001909291908035906020019092919080359060200190929190505050610961565b005b3480156102f457600080fd5b506103ae6004803603602081101561030b57600080fd5b810190808035906020019064010000000081111561032857600080fd5b82018360208201111561033a57600080fd5b8035906020019184600183028401116401000000008311171561035c57600080fd5b91908080601f016020809104026020016040519081016040528093929190818152602001838380828437600081840152601f19601f820116905080830192505050505050509192919290505050610a60565b005b3480156103bc57600080fd5b506103f3600480360360408110156103d357600080fd5b810190808035906020019092919080359060200190929190505050610b66565b604051808215151515815260200191505060405180910390f35b34801561041957600080fd5b50610422610fa8565b6040518082815260200191505060405180910390f35b34801561044457600080fd5b5061044d610fae565b6040518082815260200191505060405180910390f35b34801561046f57600080fd5b50610478610fb4565b604051808215151515815260200191505060405180910390f35b34801561049e57600080fd5b506104a761109d565b604051808273ffffffffffffffffffffffffffffffffffffffff1673ffffffffffffffffffffffffffffffffffffffff16815260200191505060405180910390f35b3480156104f557600080fd5b506104fe6110c2565b6040518082815260200191505060405180910390f35b34801561052057600080fd5b506105296110c8565b604051808273ffffffffffffffffffffffffffffffffffffffff1673ffffffffffffffffffffffffffffffffffffffff16815260200191505060405180910390f35b34801561057757600080fd5b506105a46004803603602081101561058e57600080fd5b81019080803590602001909291905050506110ee565b604051808215151515815260200191505060405180910390f35b3480156105ca57600080fd5b50610615600480360360808110156105e157600080fd5b81019080803590602001909291908035906020019092919080359060200190929190803590602001909291905050506112ef565b005b34801561062357600080fd5b50610678600480360360a081101561063a57600080fd5b8101908080359060200190929190803590602001909291908035906020019092919080359060200190929190803590602001909291905050506114ad565b005b34801561068657600080fd5b506106b36004803603602081101561069d57600080fd5b8101908080359060200190929190505050611621565b604051808881526020018773ffffffffffffffffffffffffffffffffffffffff1673ffffffffffffffffffffffffffffffffffffffff16815260200186815260200185815260200184815260200183815260200182815260200197505050505050505060405180910390f35b34801561072b57600080fd5b506107586004803603602081101561074257600080fd5b81019080803590602001909291905050506117a6565b604051808781526020018673ffffffffffffffffffffffffffffffffffffffff1673ffffffffffffffffffffffffffffffffffffffff168152602001858152602001848152602001838152602001828152602001965050505050505060405180910390f35b60006008826040518082805190602001908083835b6020831015156107f757805182526020820191506020810190506020830392506107d2565b6001836020036101000a0380198251168184511680821785525050505050509050019150509081526020016040518091039020549050919050565b606060065482111515156108ae576040517f08c379a00000000000000000000000000000000000000000000000000000000081526004018080602001828103825260208152602001807f4573746520706573746963696461206e6f20657374c3a120616365707461646f81525060200191505060405180910390fd5b600760008381526020019081526020016000208054600181600116156101000203166002900480601f0160208091040260200160405190810160405280929190818152602001828054600181600116156101000203166002900480156109555780601f1061092a57610100808354040283529160200191610955565b820191906000526020600020905b81548152906001019060200180831161093857829003601f168201915b50505050509050919050565b3373ffffffffffffffffffffffffffffffffffffffff166003600088815260200190815260200160002060010160009054906101000a900473ffffffffffffffffffffffffffffffffffffffff1673ffffffffffffffffffffffffffffffffffffffff161415156109d157600080fd5b846003600088815260200190815260200160002060020181905550836003600088815260200190815260200160002060030181905550826003600088815260200190815260200160002060040181905550816003600088815260200190815260200160002060050181905550806003600088815260200190815260200160002060060181905550505050505050565b6000809054906101000a900473ffffffffffffffffffffffffffffffffffffffff1673ffffffffffffffffffffffffffffffffffffffff163373ffffffffffffffffffffffffffffffffffffffff16141515610abb57600080fd5b600160065401600681905550806007600060065481526020019081526020016000209080519060200190610af092919061190e565b506006546008826040518082805190602001908083835b602083101515610b2c5780518252602082019150602081019050602083039250610b07565b6001836020036101000a03801982511681845116808217855250505050505090500191505090815260200160405180910390208190555050565b60008060009054906101000a900473ffffffffffffffffffffffffffffffffffffffff1673ffffffffffffffffffffffffffffffffffffffff163373ffffffffffffffffffffffffffffffffffffffff16141515610bc357600080fd5b6002600083815260200190815260200160002060030154600360008581526020019081526020016000206002015411151515610c8d576040517f08c379a00000000000000000000000000000000000000000000000000000000081526004018080602001828103825260328152602001807f456c2064726f6e206e6f20616c63616e7a61206c6120616c74757261206dc3ad81526020017f6e696d61206465206c612070617263656c61000000000000000000000000000081525060400191505060405180910390fd5b60026000838152602001908152602001600020600401546003600085815260200190815260200160002060040154141515610d30576040517f08c379a00000000000000000000000000000000000000000000000000000000081526004018080602001828103825260188152602001807f456c20706573746963696461206e6f20636f696e63696465000000000000000081525060200191505060405180910390fd5b6000600360008581526020019081526020016000206005015460026000858152602001908152602001600020600501540290506000600160009054906101000a900473ffffffffffffffffffffffffffffffffffffffff1673ffffffffffffffffffffffffffffffffffffffff1663a616daa66003600088815260200190815260200160002060010160009054906101000a900473ffffffffffffffffffffffffffffffffffffffff166000809054906101000a900473ffffffffffffffffffffffffffffffffffffffff16856040518463ffffffff167c0100000000000000000000000000000000000000000000000000000000028152600401808473ffffffffffffffffffffffffffffffffffffffff1673ffffffffffffffffffffffffffffffffffffffff1681526020018373ffffffffffffffffffffffffffffffffffffffff1673ffffffffffffffffffffffffffffffffffffffff1681526020018281526020019350505050602060405180830381600087803b158015610eb557600080fd5b505af1158015610ec9573d6000803e3d6000fd5b505050506040513d6020811015610edf57600080fd5b8101908080519060200190929190505050905060011515811515141515610f6e576040517f08c379a00000000000000000000000000000000000000000000000000000000081526004018080602001828103825260118152602001807f5061676f206e6f207265616c697a61646f00000000000000000000000000000081525060200191505060405180910390fd5b8184867f3caf6b0cd369f5204d1fade2b0b814f6acdc571fcc7d91d01afc3cc5a91a2cf160405160405180910390a4809250505092915050565b60065481565b60055481565b6000600160009054906101000a900473ffffffffffffffffffffffffffffffffffffffff1673ffffffffffffffffffffffffffffffffffffffff16634e6ec24733620f42406040518363ffffffff167c0100000000000000000000000000000000000000000000000000000000028152600401808373ffffffffffffffffffffffffffffffffffffffff1673ffffffffffffffffffffffffffffffffffffffff16815260200182815260200192505050600060405180830381600087803b15801561107e57600080fd5b505af1158015611092573d6000803e3d6000fd5b505050506001905090565b6000809054906101000a900473ffffffffffffffffffffffffffffffffffffffff1681565b60045481565b600160009054906101000a900473ffffffffffffffffffffffffffffffffffffffff1681565b60003373ffffffffffffffffffffffffffffffffffffffff166003600084815260200190815260200160002060010160009054906101000a900473ffffffffffffffffffffffffffffffffffffffff1673ffffffffffffffffffffffffffffffffffffffff1614151561116057600080fd5b6000600360008481526020019081526020016000206006015460036000858152602001908152602001600020600501540290506000600160009054906101000a900473ffffffffffffffffffffffffffffffffffffffff1673ffffffffffffffffffffffffffffffffffffffff1663c85f18306000809054906101000a900473ffffffffffffffffffffffffffffffffffffffff16846040518363ffffffff167c0100000000000000000000000000000000000000000000000000000000028152600401808373ffffffffffffffffffffffffffffffffffffffff1673ffffffffffffffffffffffffffffffffffffffff16815260200182815260200192505050602060405180830381600087803b15801561127b57600080fd5b505af115801561128f573d6000803e3d6000fd5b505050506040513d60208110156112a557600080fd5b81019080805190602001909291905050509050837f757ccf6303ea6756921888865f81e1e0e51920bf5676bf4e4574b9fcdfee549b60405160405180910390a28092505050919050565b6000809054906101000a900473ffffffffffffffffffffffffffffffffffffffff1673ffffffffffffffffffffffffffffffffffffffff163373ffffffffffffffffffffffffffffffffffffffff1614151561134a57600080fd5b60065482111515156113c4576040517f08c379a00000000000000000000000000000000000000000000000000000000081526004018080602001828103825260158152602001807f506573746963696461206e6f20616365707461646f000000000000000000000081525060200191505060405180910390fd5b60016004540160048190555060c06040519081016040528060045481526020013373ffffffffffffffffffffffffffffffffffffffff168152602001858152602001848152602001838152602001828152506002600060045481526020019081526020016000206000820151816000015560208201518160010160006101000a81548173ffffffffffffffffffffffffffffffffffffffff021916908373ffffffffffffffffffffffffffffffffffffffff16021790555060408201518160020155606082015181600301556080820151816004015560a0820151816005015590505050505050565b6006548311151515611527576040517f08c379a00000000000000000000000000000000000000000000000000000000081526004018080602001828103825260158152602001807f506573746963696461206e6f20616365707461646f000000000000000000000081525060200191505060405180910390fd5b60016005540160058190555060e06040519081016040528060055481526020013373ffffffffffffffffffffffffffffffffffffffff168152602001868152602001858152602001848152602001838152602001828152506003600060055481526020019081526020016000206000820151816000015560208201518160010160006101000a81548173ffffffffffffffffffffffffffffffffffffffff021916908373ffffffffffffffffffffffffffffffffffffffff16021790555060408201518160020155606082015181600301556080820151816004015560a0820151816005015560c082015181600601559050505050505050565b600080600080600080600060055488111515156116cc576040517f08c379a00000000000000000000000000000000000000000000000000000000081526004018080602001828103825260288152602001807f45737461206964206e6f20636f72726573706f6e64652061206e696e67756e6181526020017f2070617263656c6100000000000000000000000000000000000000000000000081525060400191505060405180910390fd5b6003600089815260200190815260200160002060000154600360008a815260200190815260200160002060010160009054906101000a900473ffffffffffffffffffffffffffffffffffffffff16600360008b815260200190815260200160002060020154600360008c815260200190815260200160002060030154600360008d815260200190815260200160002060040154600360008e815260200190815260200160002060050154600360008f8152602001908152602001600020600601549650965096509650965096509650919395979092949650565b600080600080600080600454871115151561184f576040517f08c379a00000000000000000000000000000000000000000000000000000000081526004018080602001828103825260258152602001807f45737461206964206e6f20636f72726573706f6e64652061206e696e67c3ba6e81526020017f2064726f6e00000000000000000000000000000000000000000000000000000081525060400191505060405180910390fd5b60026000888152602001908152602001600020600001546002600089815260200190815260200160002060010160009054906101000a900473ffffffffffffffffffffffffffffffffffffffff16600260008a815260200190815260200160002060020154600260008b815260200190815260200160002060030154600260008c815260200190815260200160002060040154600260008d81526020019081526020016000206005015495509550955095509550955091939550919395565b828054600181600116156101000203166002900490600052602060002090601f016020900481019282601f1061194f57805160ff191683800117855561197d565b8280016001018555821561197d579182015b8281111561197c578251825591602001919060010190611961565b5b50905061198a919061198e565b5090565b6119b091905b808211156119ac576000816000905550600101611994565b5090565b9056fea165627a7a72305820c070b47961db280a6bab64790c29a3d464abdbb041e29bd0eac8240d3fd22b6d0029",
  "source": "pragma solidity ^0.5.0;\r\n\r\n\r\nimport \"./TokenDron.sol\";\r\n\r\ncontract GestionDron {\r\n    \r\n    \r\n    address public owner;\r\n    TokenDron public tokendron;\r\n    \r\n    constructor (address tokenAddress) public {\r\n    \r\n        tokendron = TokenDron(tokenAddress);\r\n        owner = msg.sender;\r\n        nuevoPesticida(\"A\");\r\n        nuevoPesticida(\"B\");\r\n        nuevoPesticida(\"C\");\r\n        nuevoPesticida(\"D\");\r\n        nuevoPesticida(\"E\");\r\n    }\r\n    \r\n    mapping (uint256 => Dron) drones;\r\n    mapping (uint256 => Parcela) parcelas;\r\n    \r\n    uint256 public droncount;\r\n    uint256 public parcelacount;\r\n    \r\n    uint256 public pesticidasAceptados;\r\n    \r\n    mapping (uint256 => string) pesticidasporid;\r\n    mapping (string => uint256) pesticidaspornombre;\r\n    \r\n    //Caractersticas relativas a la parcela:\r\n    struct Parcela {\r\n\r\n        uint256 id;\r\n        address propietarioParcela;\r\n        uint256 min;\r\n        uint256 max;\r\n        uint256 pesticida;\r\n        uint256 m2;\r\n        uint256 preciomaxm2;\r\n    }\r\n    \r\n    //Caractersticas relativas al dron:\r\n    struct Dron {\r\n\r\n        uint256 id;\r\n        address empresaPropietaria;\r\n        uint256 min;\r\n        uint256 max;\r\n        uint256 pesticida;\r\n        uint256 preciom2;\r\n    }\r\n    \r\n    //Modificador que excluye de ejecutar una funcin a todo aquel que no sea el dueo del contrato:\r\n    modifier onlyOwner () {\r\n        require(msg.sender == owner);\r\n        _;\r\n    }\r\n    //Evento que tiene lugar cuando la parcela se ha fumigado y ejecutado el pago:\r\n    event ParcelaFumigada (uint256 indexed idparcela, uint256 indexed iddron, uint256 indexed factura);\r\n    \r\n    //Evento que tiene lugar cuando el cliente aprueba un trabajo sobre una parcela con un precio mximo establecido:\r\n    event TrabajoSolicitado (uint256 indexed id);\r\n     \r\n    //La empresa aade un pesticida nuevo:\r\n    function nuevoPesticida(string memory _nuevoPesticida) public onlyOwner\r\n    {\r\n        pesticidasAceptados = pesticidasAceptados + 1;\r\n        pesticidasporid[pesticidasAceptados] = _nuevoPesticida;\r\n        pesticidaspornombre[_nuevoPesticida] = pesticidasAceptados;\r\n    }\r\n    \r\n    //La empresa registra un dron:\r\n    function registrarDron (uint256 _min, uint256 _max, uint256 _pesticida, uint256 _preciom2) public onlyOwner \r\n    {\r\n        require(_pesticida <= pesticidasAceptados, \"Pesticida no aceptado\");\r\n        droncount = droncount + 1;\r\n        drones[droncount] = Dron(droncount, msg.sender, _min, _max, _pesticida, _preciom2);\r\n    }\r\n    \r\n    //El cliente registra una parcela:\r\n    function registrarParcela (uint256 _min, uint256 _max, uint256 _pesticida, uint256 _m2, uint256 _preciomaxm2) public\r\n    {\r\n        require(_pesticida <= pesticidasAceptados, \"Pesticida no aceptado\");\r\n        parcelacount = parcelacount + 1;\r\n        parcelas[parcelacount] = Parcela(parcelacount, msg.sender, _min, _max, _pesticida, _m2, _preciomaxm2);\r\n    }\r\n    \r\n    //Introduce el id del pesticida para obtener su nombre:\r\n    function getnombrepesticidaporid (uint256 _id) public view returns(string memory)\r\n    {\r\n        require(_id <= pesticidasAceptados, \"Este pesticida no est aceptado\");\r\n        return pesticidasporid[_id];\r\n    }\r\n    \r\n    //Introduce el nombre del pesticida para obtener su id:\r\n    function getidpesticidapornombre (string memory _nombre) public view returns(uint256)\r\n    {\r\n        return pesticidaspornombre[_nombre];\r\n    }\r\n    \r\n    //Obtener tokens gratis para probar la plataforma\r\n    function obtenerBono () external returns (bool success) {\r\n        \r\n        tokendron._mint(msg.sender, 1000000);\r\n        return true;\r\n    }\r\n    \r\n    //El propietario de la parcela aprueba el pago:\r\n    function solicitarTrabajo (uint256 _idParcela) external returns (bool success)\r\n    {\r\n        require(parcelas[_idParcela].propietarioParcela == msg.sender);\r\n        uint256 preciomax = parcelas[_idParcela].m2 * parcelas[_idParcela].preciomaxm2;\r\n        bool increased;\r\n        increased = tokendron.increaseAllowanceOrigin(owner, preciomax);\r\n        emit TrabajoSolicitado(_idParcela);\r\n        \r\n        return increased;\r\n    }\r\n    \r\n    //Aumenta el preciomaxm2 si no es suficiente para realizar el trabajo:\r\n    function modificarParcela (uint256 _idParcela, uint256 min, uint256 max, uint256 pesticida,  uint256 m2, uint256 preciomaxm2) public {\r\n        \r\n        require(parcelas[_idParcela].propietarioParcela == msg.sender);\r\n        parcelas[_idParcela].min = min;\r\n        parcelas[_idParcela].max = max;\r\n        parcelas[_idParcela].pesticida = pesticida;\r\n        parcelas[_idParcela].m2 = m2;\r\n        parcelas[_idParcela].preciomaxm2 = preciomaxm2;\r\n    }\r\n    \r\n    //La empresa fumiga la parcela y cobra:\r\n    function fumigar (uint256 _idParcela, uint256 _idDron) public onlyOwner returns (bool success) {\r\n        \r\n        require(parcelas[_idParcela].min <= drones[_idDron].max, \"El dron no alcanza la altura mnima de la parcela\");\r\n        require(parcelas[_idParcela].pesticida == drones[_idDron].pesticida, \"El pesticida no coincide\");\r\n        uint256 factura = drones[_idDron].preciom2 * parcelas[_idParcela].m2;\r\n        bool transferedfrom;\r\n        transferedfrom = tokendron.transferFromOrigin(parcelas[_idParcela].propietarioParcela, owner, factura);\r\n        require(transferedfrom == true, \"Pago no realizado\");\r\n        emit ParcelaFumigada(_idParcela, _idDron, factura);\r\n        return transferedfrom;\r\n    }\r\n    \r\n    /*This type is only supported in the new experimental ABI encoder. Use \"pragma experimental ABIEncoderV2;\" to enable the feature.\r\n    Introduce el id de la parcela para obtener su informacin:\r\n    function getparcelas(uint256 _id) public view returns (Parcela memory) {\r\n        \r\n        require(_id <= parcelacount, \"Esta id no corresponde a ninguna parcela\");\r\n        return parcelas[_id];\r\n    }\r\n    \r\n    //Introduce el id del dron para obtener su informacin:\r\n    function getmapdrones (uint256 _id) public view returns(Dron memory)\r\n    {\r\n        require(_id <= droncount, \"Esta id no corresponde a ningn dron\");\r\n        return drones[_id];\r\n    }\r\n    */\r\n    \r\n    //Introduce el id de la parcela para obtener su informacin:\r\n    function getparcelas(uint256 _id) public view returns (uint256 idParcela, address propietarioParcela, uint256 min, uint256 max, uint256 pesticida, uint256 m2, uint256 preciomaxm2) \r\n    {\r\n        \r\n        require(_id <= parcelacount, \"Esta id no corresponde a ninguna parcela\");\r\n        return (parcelas[_id].id, parcelas[_id].propietarioParcela, parcelas[_id].min, parcelas[_id].max, parcelas[_id].pesticida, parcelas[_id].m2, parcelas[_id].preciomaxm2); \r\n    }\r\n    //Introduce el id del dron para obtener su informacin:\r\n    function getmapdrones (uint256 _id) public view returns(uint idDron, address empresaPropietaria, uint256 _min, uint256 _max, uint256 _pesticida, uint256 _preciom2)\r\n    {\r\n        require(_id <= droncount, \"Esta id no corresponde a ningn dron\");\r\n        return (drones[_id].id, drones[_id].empresaPropietaria, drones[_id].min, drones[_id].max, drones[_id].pesticida, drones[_id].preciom2); \r\n    }\r\n    \r\n\r\n}",
  "sourcePath": "C:/Users/marcr/OneDrive/Escritorio/drongest/contracts/GestionDron.sol",
  "compiler": {
    "name": "solc",
    "version": "0.5.0+commit.1d4f565a.Emscripten.clang"
  },
  "schemaVersion": "3.0.19",
  "updatedAt": "2020-03-16T04:39:53.239Z",
  "networkType": "ethereum",
  "devdoc": {
    "methods": {}
  },
  "userdoc": {
    "methods": {}
  }
}